:100000000C9446000C9465000C9465000C946500FB
:100010000C9465000C9465000C9465000C946500CC
:100020000C9465000C9465000C9465000C946500BC
:100030000C9465000C94DE000C9465000C94650033
:100040000C9465000C9465000C9465000C9465009C
:100050000C9465000C9465000C9465000C9465008C
:100060000C9465000C9465000C9465000C9465007C
:100070000C9465000C9465000C9465000C9465006C
:100080000C9465000C9465000C94650011241FBE4F
:10009000CFEFD0E4DEBFCDBF11E0A0E0B1E0E2EFF2
:1000A000F7E000E00BBF02C007900D92A831B10746
:1000B000D9F721E0A8E1B1E001C01D92AA32B20750
:1000C000E1F70E9469030C94F7030C940000CF93AE
:1000D000DF9300D01F92CDB7DEB789837B836A831D
:1000E00089818A3031F48A819B81BC018DE00E9434
:1000F000670080EC90E0FC018081882F90E08072A6
:100100009927892BB1F386EC90E02981FC012083AB
:1001100080E090E00F900F900F90DF91CF910895C5
:10012000CF93DF93CDB7DEB781E080931D01000050
:10013000DF91CF910895CF93DF93CDB7DEB781E8FC
:1001400090E02BE0FC01208388E890E02DE730E090
:10015000FC01318320838FE690E022E0FC012083C4
:1001600084E890E0FC01118210828091140190914A
:100170001501A0911601B091170180931E01909373
:100180001F01A0932001B09321018FE590E02FE59E
:1001900030E0F90120812068FC0120830000DF911C
:1001A000CF910895CF93DF93CDB7DEB781E890E08C
:1001B000FC0110820000DF91CF9108951F920F92F1
:1001C00000905F000F92112400905B000F922F931C
:1001D0003F934F935F936F937F938F939F93AF93CF
:1001E000BF93EF93FF93CF93DF93CDB7DEB78091AB
:1001F0001E0190911F01A0912001B0912101019752
:10020000A109B10980931E0190931F01A0932001C1
:10021000B093210180911E0190911F01A0912001B6
:10022000B0912101892B8A2B8B2B91F40E94900095
:100230008091140190911501A0911601B0911701C0
:1002400080931E0190931F01A0932001B093210180
:100250000000DF91CF91FF91EF91BF91AF919F91FE
:100260008F917F916F915F914F913F912F910F905F
:1002700000925B000F9000925F000F901F90189506
:10028000CF93DF9300D000D0CDB7DEB769837A83F8
:100290008B839C8389819A81AB81BC81809314017B
:1002A00090931501A0931601B0931701809114014A
:1002B00090911501A0911601B091170180931E0134
:1002C00090931F01A0932001B093210100000F9093
:1002D0000F900F900F90DF91CF910895CF93DF9300
:1002E000CDB7DEB780912201909123018130910535
:1002F00081F08130910530F08230910589F00397CB
:10030000B1F01CC081E090E0909323018093220122
:100310001AC082E090E0909323018093220113C0E1
:1003200083E090E090932301809322010CC081E050
:1003300090E0909323018093220105C01092230145
:1003400010922201000080912201909123018130BE
:10035000910549F08130910590F08230910539F096
:10036000039749F00DC081E08093180109C082E035
:100370008093180105C084E08093180101C000003B
:100380000000DF91CF910895CF93DF93CDB7DEB713
:1003900080912401909125018130910569F081308F
:1003A000910518F0029779F015C081E090E09093E4
:1003B00025018093240113C082E090E090932501F1
:1003C000809324010CC081E090E0909325018093FC
:1003D000240105C010922501109224010000809193
:1003E0002401909125018130910531F081309105F2
:1003F00050F0029721F008C01092190105C081E069
:100400008093190101C000000000DF91CF91089591
:10041000CF93DF93CDB7DEB780912601909127016E
:10042000009719F0019741F00EC081E090E09093A1
:100430002701809326010CC081E090E09093270172
:100440008093260105C0109227011092260100001A
:100450008091260190912701009709F1019709F0F9
:100460001FC085E290E020911A01222F30E02295F2
:100470003295307F3227207F3227422F2091190179
:10048000222F30E0220F331F220F331F220F331F82
:10049000242B30911801232BFC01208301C0000084
:1004A0000000DF91CF910895CF93DF93CDB7DEB7F2
:1004B00080912801909129018230910509F45BC057
:1004C0008330910528F4009779F00197A1F095C049
:1004D0008430910509F469C08430910508F46CC03A
:1004E000059709F470C089C081E090E090932901DC
:1004F0008093280187C080E290E0FC018081882FF2
:1005000090E08095909587709927049739F482E060
:1005100090E0909329018093280174C080E290E0DC
:10052000FC018081882F90E08095909587709927B5
:10053000019739F483E090E090932901809328019A
:1005400061C080E290E0FC018081882F90E080957E
:10055000909587709927029739F484E090E0909302
:100560002901809328014EC081E090E090932901F9
:100570008093280147C080E290E0FC018081882FB1
:1005800090E08095909587709927892B39F481E0C8
:1005900090E0909329018093280134C082E090E09C
:1005A00090932901809328012DC085E090E09093DD
:1005B00029018093280126C085E090E090932901CD
:1005C000809328011FC080E290E0FC018081882F89
:1005D00090E08095909587709927892B39F481E078
:1005E00090E090932901809328010CC085E090E071
:1005F000909329018093280105C01092290110923F
:1006000028010000809128019091290182309105F4
:10061000A9F08330910530F4009709F451C0019797
:1006200041F053C083309105B9F1049709F43EC0FD
:100630004CC010921A0110921B0147C080911C01FE
:10064000882F90E0825F9E4FFC01908180911B017A
:10065000981720F081E080931A0118C080911B0147
:10066000282F30E080911C01882F90E0825F9E4F00
:10067000FC018081882F90E0880F991F82179307D3
:100680001CF010921A0102C010921B0180911B01F4
:100690008F5F80931B0119C080911C01882391F00A
:1006A00080911C01815080931C010CC080911C0121
:1006B000863050F480911C018F5F80931C0104C030
:1006C000000003C0000001C000000000DF91CF91D6
:1006D0000895CF93DF93CDB7DEB72C970FB6F8947C
:1006E000DEBF0FBECDBF81E290E0FC01108282E24E
:1006F00090E02FEFFC01208384E290E02FEFFC01DB
:10070000208385E290E0FC01108219821A821B820C
:100710001C821D821E821F82188681E090E0A0E06C
:10072000B0E089879A87AB87BC8761E070E080E0A2
:1007300090E00E9440010E949B00109223011092C1
:10074000220110922501109224011092270110928B
:100750002601109229011092280189819A81AB818A
:10076000BC818C329140A105B10530F00E946E0130
:1007700019821A821B821C828D819E81AF81B8856D
:10078000883E9340A105B10530F00E94C4011D824E
:100790001E821F8218860E9454020E9408020000D6
:1007A00080911D018823E1F310921D0129813A8176
:1007B0004B815C8189859A85AB85BC85820F931FAF
:1007C000A41FB51F89839A83AB83BC832D813E818F
:1007D0004F81588589859A85AB85BC85820F931F8B
:1007E000A41FB51F8D839E83AF83B887B6CFF894BF
:0207F000FFCF39
:1007F200000000020000000067000000000001028B
:080802000304050601000000DB
:00000001FF
