:100000000C9446000C9465000C9465000C946500FB
:100010000C9465000C9465000C9465000C946500CC
:100020000C9465000C9465000C9465000C946500BC
:100030000C9465000C94D9000C9465000C94650038
:100040000C9465000C9465000C9465000C9465009C
:100050000C9465000C9465000C9465000C9465008C
:100060000C9465000C9465000C9465000C9465007C
:100070000C9465000C9465000C9465000C9465006C
:100080000C9465000C9465000C94650011241FBE4F
:10009000CFEFD0E4DEBFCDBF11E0A0E0B1E0E6E4F9
:1000A000F7E000E00BBF02C007900D92A431B1074A
:1000B000D9F721E0A4E1B1E001C01D92A832B20756
:1000C000E1F70E9473030C94A1030C940000CF93FA
:1000D000DF9300D01F92CDB7DEB789837B836A831D
:1000E00089818A3031F48A819B81BC018DE00E9434
:1000F000670080EC90E0FC018081882F90E08072A6
:100100009927892BB1F386EC90E02981FC012083AB
:1001100080E090E00F900F900F90DF91CF910895C5
:10012000CF93DF93CDB7DEB781E080931401000059
:10013000DF91CF910895CF93DF93CDB7DEB781E8FC
:1001400090E02BE0FC01208388E890E02DE730E090
:10015000FC01318320838FE690E022E0FC012083C4
:1001600080910E0190910F01A0911001B0911101A9
:100170008093150190931601A0931701B093180175
:100180008FE590E02FE530E0F90120812068FC0147
:1001900020830000DF91CF910895CF93DF93CDB7F7
:1001A000DEB781E890E0FC0110820000DF91CF9182
:1001B00008951F920F9200905F000F9211240090FB
:1001C0005B000F922F933F934F935F936F937F93B7
:1001D0008F939F93AF93BF93EF93FF93CF93DF934F
:1001E000CDB7DEB78091150190911601A09117014E
:1001F000B09118010197A109B1098093150190935D
:100200001601A0931701B0931801809115019091E8
:100210001601A0911701B0911801892B8A2B8B2B05
:1002200091F40E94900080910E0190910F01A09195
:100230001001B09111018093150190931601A093C4
:100240001701B09318010000DF91CF91FF91EF915A
:10025000BF91AF919F918F917F916F915F914F91DE
:100260003F912F910F9000925B000F9000925F00E2
:100270000F901F901895CF93DF9300D000D0CDB78B
:10028000DEB769837A838B839C8389819A81AB8172
:10029000BC8180930E0190930F01A0931001B09345
:1002A000110180910E0190910F01A0911001B09168
:1002B00011018093150190931601A0931701B0933B
:1002C000180100000F900F900F900F90DF91CF91C9
:1002D0000895CF93DF93CDB7DEB780911A01909147
:1002E0001B018C32914008F44EC080912601909100
:1002F00027018130910581F08130910530F0823005
:10030000910589F00397B1F01CC081E090E09093D3
:100310002701809326011AC082E090E09093270184
:100320008093260113C083E090E09093270180938F
:1003300026010CC081E090E0909327018093260174
:1003400005C010922701109226010000809126011D
:10035000909127018230910551F08330910559F039
:10036000019709F00CC081E08093190108C082E078
:100370008093190104C084E0809319010000109259
:100380001B0110921A0180911A0190911B01019694
:1003900090931B0180931A010000DF91CF91089583
:1003A000CF93DF93CDB7DEB780911D0190911E01F1
:1003B000883E9340E0F180912401909125018130A5
:1003C000910569F08130910518F0029779F015C018
:1003D00081E090E0909325018093240113C082E096
:1003E00090E090932501809324010CC081E090E07F
:1003F000909325018093240105C01092250110924D
:100400002401000080912401909125018130910503
:1004100019F0029729F007C081E080931C0103C006
:1004200010921C01000010921E0110921D0180917B
:100430001D0190911E01019690931E0180931D0154
:100440000000DF91CF910895CF93DF9300D000D0CB
:10045000CDB7DEB780E290E0FC018081882F90E08C
:10046000809590958770992721E0019709F020E009
:10047000298380E290E0FC018081882F90E08095C4
:1004800090958770992721E0029709F020E02A8350
:1004900080E290E0FC018081882F90E0809590952B
:1004A0008770992721E0049709F020E02B8380E2F0
:1004B00090E0FC018081882F90E080959095877076
:1004C000992721E0892B09F020E02C8380912201DB
:1004D0009091230182309105B9F08330910528F481
:1004E000009759F00197A9F15DC08530910508F496
:1004F00052C0059709F43EC055C082E090E0909349
:1005000023018093220153C08B81882339F081E03D
:1005100090E0909323018093220149C08A8188232F
:1005200039F084E090E090932301809322013FC052
:100530008981882339F083E090E0909323018093B0
:10054000220135C082E090E0909323018093220144
:100550002EC08C81882339F082E090E090932301B3
:100560008093220124C081E090E090932301809346
:1005700022011DC08C81882339F082E090E09093A5
:1005800023018093220113C085E090E09093230122
:10059000809322010CC085E090E09093230180932A
:1005A000220105C0109223011092220100008091C7
:1005B0002201909123018230910561F083309105F1
:1005C00018F4019779F15CC083309105D9F0049754
:1005D00041F056C0109221011092200110921F018B
:1005E00055C08091120190911301069708F04BC0FD
:1005F00080911201909113010196909313018093C1
:10060000120141C080911201909113010297E8F10B
:10061000809112019091130101979093130180939F
:10062000120133C080911201909113019C01220F9D
:10063000331F80912001909121012817390728F458
:10064000109221011092200111C0209120013091BF
:10065000210180911201909113018217930718F4E0
:1006600010921F0103C081E080931F01809120013F
:10067000909121010196909321018093200106C061
:1006800010921F0103C0000001C0000000000F9085
:100690000F900F900F90DF91CF910895CF93DF933C
:1006A000CDB7DEB785E290E020911F01222F30E028
:1006B00022953295307F3227207F3227422F20919A
:1006C0001C01222F30E0220F331F220F331F220F75
:1006D000331F242B30911901232BFC0120830000B0
:1006E000DF91CF910895CF93DF93CDB7DEB781E24D
:1006F00090E0FC01108282E290E02FEFFC01208369
:1007000084E290E02FEFFC01208385E290E0FC0181
:10071000108261E070E080E090E00E943B010E9466
:100720009B000E9469010E94D0010E9424020E9445
:100730004E030000809114018823E1F3109214010C
:06074000F0CFF894FFCF9A
:100746000000000200000000670000000000010039
:04075600000001009E
:00000001FF
